:100000000C9424010C946E0B0C94FF0C0C946C0E4D
:100010000C9441010C94960E0C9441010C944101F6
:100020000C9441010C9441010C9441010C94410148
:100030000C9441010C9441010C94050F0C94410166
:100040000C9441010C9441010C946C0F0C944101EF
:100050000C9441010C94480F0C9441010C94410103
:100060000C9441010C944101000000000000005F6D
:1000700000000007000700147F147F14242A7F2A41
:10008000122313086462364955225000050300000C
:10009000001C2241000041221C0014083E081408E4
:1000A000083E0808005030000008080808080060F2
:1000B00060000020100804023E5149453E00427F86
:1000C000400042615149462141454B311814127F8D
:1000D0001027454545393C4A494930017109050316
:1000E0003649494936064949291E0036360000007E
:1000F0005636000008142241001414141414004150
:100100002214080201510906324979413E7E11113B
:10011000117E7F494949363E414141227F4141227A
:100120001C7F494949417F090909013E4149497AF2
:100130007F0808087F00417F41002040413F017F48
:10014000081422417F404040407F020C027F7F0420
:1001500008107F3E4141413E7F090909063E415159
:10016000215E7F09192946464949493101017F012C
:10017000013F4040403F1F2040201F3F4038403F4C
:100180006314081463070870080761514945430068
:100190007F41410002040810200041417F00040219
:1001A0000102044040404040000102040020545439
:1001B00054787F48444438384444442038444448C0
:1001C0007F3854545418087E0901020C5252523E92
:1001D0007F0804047800447D40002040443D007FB7
:1001E0001028440000417F40007C041804787C08FB
:1001F00004047838444444387C1414140808141453
:10020000187C7C080404084854545420043F44409B
:10021000203C4040207C1C2040201C3C4030403C86
:1002200044281028440C5050503C4464544C440022
:100230000836410000007F00000041360800100829
:10024000081008000000000011241FBECFEFD8E006
:10025000DEBFCDBF11E0A0E0B1E0E2E3F3E302C016
:1002600005900D92A639B107D9F724E0A6E9B1E0CF
:1002700001C01D92A634B207E1F70E94990F0C94B9
:1002800097190C940000CF93DF93CDB7DEB78CE7BE
:1002900090E021E4FC0120838091A4019091A501CC
:1002A000CC01A0E0B0E0BC01CD010E941415DC013E
:1002B000CB0120E030E040EA50E4BC01CD010E94D7
:1002C000CB15DC01CB0120E030EC4FE754E4BC015E
:1002D000CD010E946C14DC01CB018093D803909374
:1002E000D903A093DA03B093DB038091D8039091F4
:1002F000D903A091DA03B091DB0320E030E040E8BD
:100300005FE3BC01CD010E94FB13DC01CB0120E0C7
:1003100030E040E251E4BC01CD010E94CB15DC018C
:10032000CB01BC01CD010E94DE14DC01CB01909316
:100330004304809342048091420490914304839744
:1003400034F080914204909143048A9754F08BE2F8
:1003500090E02BE230E0F901308120E82327FC0116
:1003600020830000DF91CF910895CF93DF93CDB725
:10037000DEB78CE790E020E4FC0120838091A401AB
:100380009091A501CC01A0E0B0E0BC01CD010E949C
:100390001415DC01CB0120E030E040EA50E4BC0160
:1003A000CD010E94CB15DC01CB0120E030EC4FE702
:1003B00054E4BC01CD010E946C14DC01CB0180939C
:1003C000D8039093D903A093DA03B093DB03809111
:1003D000D8039091D903A091DA03B091DB0320E018
:1003E00030E048EC51E4BC01CD010E94CB15DC01AA
:1003F000CB01BC01CD010E94DE14DC01CB01909346
:100400004504809344048091440490914504CC9722
:1004100054F48BE290E02BE230E0F901308120E8E7
:100420002327FC0120830000DF91CF910895CF9313
:10043000DF93CDB7DEB70E946F1260E080E00E94CC
:10044000C51361E087E091E00E94A2136AE085E2B3
:100450000E94C51361E085E191E00E94A21364E16E
:1004600085E20E94C51361E089E191E00E94A21338
:100470006EE185E20E94C51361E08FE191E00E9488
:10048000A21368E280E00E94C51361E082E291E07D
:100490000E94A21368E287E30E94C51361E088E22C
:1004A00091E00E94A2138091980190919901292FC7
:1004B0002F938F938DE291E0892F8F938DE291E0BE
:1004C0008F938CED93E0892F8F938CED93E08F9336
:1004D0000E94AD160F900F900F900F900F900F90FD
:1004E0006AE080E00E94C51361E08CED93E00E9419
:1004F000A2138091440490914504292F2F938F9348
:1005000081E391E0892F8F9381E391E08F9386E0DF
:1005100094E0892F8F9386E094E08F930E94AD162C
:100520000F900F900F900F900F900F9064E180E06C
:100530000E94C51361E086E094E00E94A2138091BE
:10054000420490914304292F2F938F938DE291E0E1
:10055000892F8F938DE291E08F9380EB93E0892F29
:100560008F9380EB93E08F930E94AD160F900F90C6
:100570000F900F900F900F906EE180E00E94C513D6
:1005800061E080EB93E00E94A21368E280E00E94A9
:10059000C51361E08EE294E00E94A2130E94D8137A
:1005A0000000DF91CF910895CF93DF93CDB7DEB7F1
:1005B0000E946F1260E080E00E94C51361E086E354
:1005C00091E00E94A2136AE089E10E94C51361E0F4
:1005D00081E491E00E94A21364E185E20E94C513C8
:1005E00061E08CE491E00E94A2136EE185E20E943A
:1005F000C51361E080E591E00E94A21380910001A3
:1006000090910101292F2F938F9381E391E0892FFE
:100610008F9381E391E08F938AE194E0892F8F9308
:100620008AE194E08F930E94AD160F900F900F9087
:100630000F900F900F906AE080E00E94C51361E078
:100640008AE194E00E94A21380919E0190919F0103
:10065000292F2F938F938DE291E0892F8F938DE235
:1006600091E08F9382EF93E0892F8F9382EF93E055
:100670008F930E94AD160F900F900F900F900F90D8
:100680000F9064E180E00E94C51361E082EF93E087
:100690000E94A2138091A0019091A101292F2F9374
:1006A0008F938DE291E0892F8F938DE291E08F936C
:1006B00084EC93E0892F8F9384EC93E08F930E94D6
:1006C000AD160F900F900F900F900F900F906EE15E
:1006D00080E00E94C51361E084EC93E00E94A213C5
:1006E0000E94D8130000DF91CF910895CF93DF933C
:1006F000CDB7DEB70E946F1260E080E00E94C513A4
:1007000061E086E391E00E94A2136AE085E20E9424
:10071000C51361E084E591E00E94A21364E189E1E0
:100720000E94C51361E08DE591E00E94A2136EE185
:1007300085E20E94C51361E080E591E00E94A2136A
:100740008091000190910101292F2F938F9381E3D4
:1007500091E0892F8F9381E391E08F938AE194E078
:10076000892F8F938AE194E08F930E94AD160F90AA
:100770000F900F900F900F900F906AE080E00E9412
:10078000C51361E08AE194E00E94A21380919E016A
:1007900090919F01292F2F938F938DE291E0892FC4
:1007A0008F938DE291E08F9382EF93E0892F8F9367
:1007B00082EF93E08F930E94AD160F900F900F90F1
:1007C0000F900F900F9064E180E00E94C51361E0EC
:1007D00082EF93E00E94A2138091A0019091A10169
:1007E000292F2F938F938DE291E0892F8F938DE2A4
:1007F00091E08F9384EC93E0892F8F9384EC93E0C6
:100800008F930E94AD160F900F900F900F900F9046
:100810000F906EE180E00E94C51361E084EC93E0EC
:100820000E94A2130E94D8130000DF91CF91089577
:10083000CF93DF93CDB7DEB70E946F1260E080E008
:100840000E94C51361E086E391E00E94A2136AE072
:1008500085E20E94C51361E084E591E00E94A21345
:1008600064E185E20E94C51361E08CE491E00E949E
:10087000A2136EE189E10E94C51361E083E691E075
:100880000E94A2138091000190910101292F2F93C2
:100890008F9381E391E0892F8F9381E391E08F9390
:1008A0008AE194E0892F8F938AE194E08F930E94EC
:1008B000AD160F900F900F900F900F900F906AE071
:1008C00080E00E94C51361E08AE194E00E94A213D7
:1008D00080919E0190919F01292F2F938F938DE2FC
:1008E00091E0892F8F938DE291E08F9382EF93E0D7
:1008F000892F8F9382EF93E08F930E94AD160F9014
:100900000F900F900F900F900F9064E180E00E9485
:10091000C51361E082EF93E00E94A2138091A001D1
:100920009091A101292F2F938F938DE291E0892F30
:100930008F938DE291E08F9384EC93E0892F8F93D6
:1009400084EC93E08F930E94AD160F900F900F9060
:100950000F900F900F906EE180E00E94C51361E050
:1009600084EC93E00E94A2130E94D8130000DF9150
:10097000CF910895CF93DF93CDB7DEB70E946F126A
:1009800060E080E00E94C51361E089E691E00E948A
:10099000A2136AE080E00E94C51361E088E791E05D
:1009A0000E94A2136AE084E10E94C51361E08BE714
:1009B00091E00E94A2136AE088E20E94C51361E000
:1009C0008EE791E00E94A2136AE08CE30E94C513B7
:1009D00061E081E891E00E94A2136EE180E00E9454
:1009E000C51361E084E891E00E94A2136EE184E106
:1009F0000E94C51361E088E891E00E94A2136EE1B5
:100A000088E20E94C51361E08CE891E00E94A21385
:100A10006EE18CE30E94C51361E08FE891E00E94D3
:100A2000A2130E94D8130000DF91CF910895CF93B5
:100A3000DF93CDB7DEB70E946F1260E080E00E94C6
:100A4000C51361E089E691E00E94A2136AE080E0AC
:100A50000E94C51361E088E791E00E94A21364E15F
:100A600080E00E94C51361E082E991E00E94A21338
:100A70006AE084E10E94C51361E08BE791E00E9487
:100A8000A21364E187E10E94C51361E084E991E06B
:100A90000E94A2136AE088E20E94C51361E08EE71B
:100AA00091E00E94A2136AE08CE30E94C51361E00A
:100AB00081E891E00E94A2136EE180E00E94C513DC
:100AC00061E084E891E00E94A2136EE184E10E945B
:100AD000C51361E088E891E00E94A2136EE188E20C
:100AE0000E94C51361E08CE891E00E94A21368E2C5
:100AF0008BE20E94C51361E084E991E00E94A21399
:100B00006EE18CE30E94C51361E08FE891E00E94E2
:100B1000A21368E28FE30E94C51361E084E991E0CB
:100B20000E94A2130E94D8130000DF91CF91089574
:100B3000CF93DF93CDB7DEB70E946F1260E080E005
:100B40000E94C51361E089E691E00E94A2136AE069
:100B500080E00E94C51361E088E791E00E94A21343
:100B60006AE084E10E94C51361E08BE791E00E9496
:100B7000A21364E187E10E94C51361E082E991E07C
:100B80000E94A2136AE088E20E94C51361E08EE72A
:100B900091E00E94A2136AE08CE30E94C51361E019
:100BA00081E891E00E94A2136EE180E00E94C513EB
:100BB00061E084E891E00E94A2136EE184E10E946A
:100BC000C51361E088E891E00E94A2136EE188E21B
:100BD0000E94C51361E08CE891E00E94A2136EE1CF
:100BE0008CE30E94C51361E08FE891E00E94A2139C
:100BF00068E28FE30E94C51361E084E991E00E94FE
:100C0000A2130E94D8130000DF91CF910895CF93D3
:100C1000DF93CDB7DEB70E946F1260E080E00E94E4
:100C2000C51361E089E691E00E94A2136AE080E0CA
:100C30000E94C51361E088E791E00E94A2136AE078
:100C400084E10E94C51361E08BE791E00E94A2134A
:100C50006AE088E20E94C51361E08EE791E00E949D
:100C6000A21364E18BE20E94C51361E082E991E086
:100C70000E94A2136AE08CE30E94C51361E081E840
:100C800091E00E94A21364E18FE30E94C51361E02A
:100C900084E991E00E94A2136EE180E00E94C513F6
:100CA00061E084E891E00E94A2136EE184E10E9479
:100CB000C51361E088E891E00E94A2136EE188E22A
:100CC0000E94C51361E08CE891E00E94A21368E2E3
:100CD0008BE20E94C51361E084E991E00E94A213B7
:100CE0006EE18CE30E94C51361E08FE891E00E9401
:100CF000A21368E28FE30E94C51361E084E991E0EA
:100D00000E94A2130E94D8130000DF91CF91089592
:100D1000CF93DF93CDB7DEB70E946F1260E080E023
:100D20000E94C51361E089E691E00E94A2136AE087
:100D300080E00E94C51361E088E791E00E94A21361
:100D40006AE084E10E94C51361E08BE791E00E94B4
:100D5000A2136AE088E20E94C51361E08EE791E089
:100D60000E94A2136AE08CE30E94C51361E081E84F
:100D700091E00E94A21364E18FE30E94C51361E039
:100D800082E991E00E94A2136EE180E00E94C51307
:100D900061E084E891E00E94A2136EE184E10E9488
:100DA000C51361E088E891E00E94A2136EE188E239
:100DB0000E94C51361E08CE891E00E94A2136EE1ED
:100DC0008CE30E94C51361E08FE891E00E94A213BA
:100DD00068E28FE30E94C51361E084E991E00E941C
:100DE000A2130E94D8130000DF91CF910895CF93F2
:100DF000DF93CDB7DEB70E946F1260E080E00E9403
:100E0000C51361E089E691E00E94A2136AE080E0E8
:100E10000E94C51361E088E791E00E94A21364E19B
:100E200080E00E94C51361E084E991E00E94A21372
:100E30006AE084E10E94C51361E08BE791E00E94C3
:100E4000A21364E187E10E94C51361E084E991E0A7
:100E50000E94A2136AE088E20E94C51361E08EE757
:100E600091E00E94A21364E18BE20E94C51361E04D
:100E700084E991E00E94A2136AE08CE30E94C5130A
:100E800061E081E891E00E94A21364E18FE30E9497
:100E9000C51361E084E991E00E94A2136EE180E055
:100EA0000E94C51361E084E891E00E94A21368E209
:100EB00083E00E94C51361E082E991E00E94A213E1
:100EC0006EE184E10E94C51361E088E891E00E9430
:100ED000A21368E287E10E94C51361E084E991E012
:100EE0000E94A2136EE188E20E94C51361E08CE8C3
:100EF00091E00E94A21368E28BE20E94C51361E0B8
:100F000084E991E00E94A2136EE18CE30E94C51374
:100F100061E08FE891E00E94A21368E28FE30E94F3
:100F2000C51361E084E991E00E94A2130E94D813E6
:100F30000000DF91CF910895CF93DF93CDB7DEB757
:100F40000E946F1260E080E00E94C51361E089E6B4
:100F500091E00E94A2136AE080E00E94C51361E064
:100F600088E791E00E94A2136AE084E10E94C51321
:100F700061E08BE791E00E94A21364E187E10E94A7
:100F8000C51361E084E991E00E94A2136AE088E25F
:100F90000E94C51361E08EE791E00E94A2136AE00F
:100FA0008CE30E94C51361E081E891E00E94A213E6
:100FB00064E18FE30E94C51361E084E991E00E943F
:100FC000A2136EE180E00E94C51361E084E891E025
:100FD0000E94A2136EE184E10E94C51361E088E8DB
:100FE00091E00E94A21368E287E10E94C51361E0CC
:100FF00082E991E00E94A2136EE188E20E94C5138B
:1010000061E08CE891E00E94A2136EE18CE30E9403
:10101000C51361E08FE891E00E94A21368E28FE3BC
:101020000E94C51361E084E991E00E94A2130E942E
:10103000D8130000DF91CF910895CF93DF93CDB700
:10104000DEB70E946F1260E080E00E94C51361E08D
:1010500089E691E00E94A2136AE080E00E94C51335
:1010600061E088E791E00E94A2136AE084E10E94B7
:10107000C51361E08BE791E00E94A2136AE088E269
:101080000E94C51361E08EE791E00E94A2136AE01E
:101090008CE30E94C51361E081E891E00E94A213F5
:1010A0006EE180E00E94C51361E084E891E00E9457
:1010B000A2136EE184E10E94C51361E088E891E02B
:1010C0000E94A2136EE188E20E94C51361E08CE8E1
:1010D00091E00E94A21368E28BE20E94C51361E0D6
:1010E00082E991E00E94A2136EE18CE30E94C51395
:1010F00061E08FE891E00E94A21368E28FE30E9412
:10110000C51361E084E991E00E94A2130E94D81304
:101110000000DF91CF910895CF93DF93CDB7DEB775
:101120000E946F1260E080E00E94C51361E089E6D2
:1011300091E00E94A2136AE080E00E94C51361E082
:1011400088E791E00E94A2136AE084E10E94C5133F
:1011500061E08BE791E00E94A2136AE088E20E94BE
:10116000C51361E08EE791E00E94A2136AE08CE370
:101170000E94C51361E081E891E00E94A2136EE134
:1011800080E00E94C51361E084E891E00E94A21310
:101190006EE184E10E94C51361E088E891E00E945D
:1011A000A2136EE188E20E94C51361E08CE891E031
:1011B0000E94A2136EE18CE30E94C51361E08FE8E8
:1011C00091E00E94A21368E28FE30E94C51361E0E0
:1011D00082E991E00E94A2130E94D8130000DF91DF
:1011E000CF910895CF93DF93CDB7DEB780910601FD
:1011F000882341F188E890E0FC0180819181209171
:101200000201309103018217930778F010920601D2
:1012100088E890E028E830E0F901208131812A5FF8
:101220003109FC01318320833BC088E890E028E845
:1012300030E0F9012081318126503F4FFC0131839C
:1012400020832EC088E890E0FC0180819181803D60
:101250009740D1F48BE290E02BE230E0F90130814D
:1012600020E82327FC01208381E08093060188E8A1
:1012700090E028E830E0F9012081318126503F4F8D
:10128000FC01318320830CC088E890E028E830E03E
:10129000F901208131812A5F3109FC0131832083EA
:1012A0000000DF91CF910895EF92FF920F931F936B
:1012B000CF93DF9300D000D0CDB7DEB769837A83B8
:1012C0008B839C838091A6019091A701A091A80196
:1012D000B091A90129813A814B815C8179018A0110
:1012E000E81AF90A0A0B1B0BD801C701883C9105C3
:1012F000A105B10508F4A5C080919C0190919D01C4
:10130000892B31F080919C0190919D01019719F4F6
:101310000E9417028AC080919C0190919D010297C2
:1013200031F080919C0190919D01039719F40E94E6
:10133000D4027BC080919C0190919D01049731F073
:1013400080919C0190919D01059719F40E9476036C
:101350006CC080919C0190919D01069731F0809125
:101360009C0190919D01079719F40E9418045DC09B
:1013700080919C0190919D01089739F080919C018A
:1013800090919D01099709F050C08091A201909120
:10139000A301892B19F40E94BA0447C08091A201CD
:1013A0009091A301019719F40E9417053EC0809106
:1013B000A2019091A301029719F40E94980535C0EB
:1013C0008091A2019091A301039719F40E9407064E
:1013D0002CC08091A2019091A301049719F40E945E
:1013E000880623C08091A2019091A301059719F46A
:1013F0000E94F7061AC08091A2019091A30106975E
:1014000019F40E949C0711C08091A2019091A30140
:10141000079719F40E941D0808C08091A2019091BD
:10142000A301089711F40E948C0889819A81AB81ED
:10143000BC818093A6019093A701A093A801B093CB
:10144000A90100000F900F900F900F90DF91CF91A6
:101450001F910F91FF90EF900895EF92FF920F93DD
:101460001F93CF93DF9300D000D0CDB7DEB7698351
:101470007A838B839C838091AA019091AB01A09188
:10148000AC01B091AD0129813A814B815C81790138
:101490008A01E81AF90A0A0B1B0BD801C701863921
:1014A0009105A105B105A0F18091AE019091AF0128
:1014B000A091B001B091B10181709927AA27BB27F3
:1014C000892B8A2B8B2B19F40E94430102C00E94A6
:1014D000B5018091AE019091AF01A091B001B091A2
:1014E000B1010196A11DB11D8093AE019093AF0192
:1014F000A093B001B093B10189819A81AB81BC8185
:101500008093AA019093AB01A093AC01B093AD017D
:1015100000000F900F900F900F90DF91CF911F91CF
:101520000F91FF90EF900895CF93DF9300D0CDB748
:10153000DEB79A83898385EC90E029813A81232F55
:101540003327FC01208384EC90E02981FC01208377
:1015500081EC90E028E9FC01208382EC90E026E019
:10156000FC01208300000F900F90DF91CF91089530
:10157000CF93DF93CDB7DEB785E480932E0482E569
:1015800080932F0482E5809330048FE480933104AC
:1015900081E280933204109233041092340410924A
:1015A00035041092360410929B0110929A010000AB
:1015B000DF91CF910895CF93DF931F92CDB7DEB720
:1015C00086EC90E0FC018081898380912E048B332E
:1015D00019F089818B33E1F480919A0190919B01FC
:1015E000825D9B4F2981FC01208380919A0190911B
:1015F0009B01019690939B0180939A0180919A019F
:1016000090919B01099721F410929B0110929A01ED
:1016100080919A0190919B01892B31F4809136043D
:101620008A3311F00E94B80A80919A0190919B012F
:10163000892B31F480913204883711F00E94B80A66
:1016400080919A0190919B01892B91F580912F04B3
:10165000803360F180912F048A3340F5809130040B
:10166000803320F1809130048A3300F58091310479
:101670008033E0F0809131048A33C0F480913304E8
:101680008033A0F0809133048A3380F48091340455
:10169000803360F0809134048A3340F480913504C3
:1016A000803320F0809135048A3310F00E94B80A0C
:1016B00080919A0190919B01892B59F080919A0118
:1016C00090919B0108972CF489818A3311F40E9430
:1016D000B80A00000F90DF91CF9108951F920F92EA
:1016E00000905F000F9211242F933F934F935F93CD
:1016F0006F937F938F939F93AF93BF93EF93FF93DA
:10170000CF93DF93CDB7DEB780919C0190919D017F
:10171000029731F080919C0190919D010397B9F45B
:1017200080910001909101010196909301018093B5
:10173000000180910001909101014F9709F04AC189
:1017400085E090E0909301018093000143C1809176
:101750009C0190919D01049739F080919C0190919A
:101760009D01059709F04EC08AE890E02AE830E034
:10177000F9012081318128533F4FFC0131832083BF
:101780008AE890E0FC0180819181CC01A0E0B0E08A
:10179000BC01CD010E941415DC01CB012DEC3CEC09
:1017A0004CE45DE3BC01CD010E94CB15DC01CB0113
:1017B00020E030E048EC52E4BC01CD010E94FA1375
:1017C000DC01CB01BC01CD010E94DE14DC01CB01A8
:1017D00090939F0180939E0180919E0190919F0123
:1017E000843691050CF4F6C084E690E090939F0156
:1017F00080939E018AE890E020EA3FE0FC0131837B
:101800002083E8C080919C0190919D01069739F05A
:1018100080919C0190919D01079709F0BAC0809139
:10182000A0019091A10101969093A1018093A00144
:101830008091A0019091A10108979CF088E090E030
:101840009093A1018093A00180EA9FE0909303010F
:101850008093020180E190E0909305018093040160
:10186000B8C08091A0019091A101892B69F480EA10
:101870009FE0909303018093020180E190E09093B8
:10188000050180930401A5C08091A0019091A10160
:10189000019769F48AEC98E0909303018093020128
:1018A00082E090E0909305018093040192C08091C2
:1018B000A0019091A101029769F484EC99E09093C2
:1018C00003018093020184E090E0909305018093EE
:1018D00004017FC08091A0019091A101039769F458
:1018E0008EEB9AE0909303018093020186E090E0F2
:1018F00090930501809304016CC08091A0019091A8
:10190000A101049769F488EB9BE090930301809315
:10191000020188E090E0909305018093040159C092
:101920008091A0019091A101059769F482EB9CE060
:1019300090930301809302018AE090E09093050167
:101940008093040146C08091A0019091A101069767
:1019500069F48CEA9DE090930301809302018CE08E
:1019600090E0909305018093040133C08091A00121
:101970009091A101079769F586EA9EE09093030193
:10198000809302018EE090E0909305018093040122
:1019900020C080919C0190919D01089731F0809129
:1019A0009C0190919D010997A9F48091A2019091C9
:1019B000A30101969093A3018093A2018091A201BB
:1019C0009091A301099731F41092A3011092A20102
:1019D00001C000000000DF91CF91FF91EF91BF9116
:1019E000AF919F918F917F916F915F914F913F91B7
:1019F0002F910F9000925F000F901F9018951F92EB
:101A00000F9200905F000F9211242F933F934F93FA
:101A10005F936F937F938F939F93AF93BF93EF9356
:101A2000FF93CF93DF93CDB7DEB780919C01909168
:101A30009D01029731F080919C0190919D01039747
:101A4000B9F48091000190910101019790930101F7
:101A5000809300018091000190910101049709F0A9
:101A600026C18EE190E090930101809300011FC197
:101A700080919C0190919D01049739F080919C0187
:101A800090919D01059709F04CC08AE890E02AE802
:101A900030E0F90120813181285C3109FC0131837A
:101AA00020838AE890E0FC0180819181CC01A0E054
:101AB000B0E0BC01CD010E941415DC01CB012DEC7E
:101AC0003CEC4CE45DE3BC01CD010E94CB15DC0194
:101AD000CB0120E030E048EC52E4BC01CD010E9493
:101AE000FA13DC01CB01BC01CD010E94DE14DC0144
:101AF000CB0190939F0180939E0180919E019091D4
:101B00009F01181619060CF4D2C010929F01109272
:101B10009E018AE890E020ED37E0FC0131832083CC
:101B2000C6C080919C0190919D01069739F08091EB
:101B30009C0190919D01079709F0B9C08091A00187
:101B40009091A10101979093A1018093A0018091B0
:101B5000A0019091A101181619068CF01092A10114
:101B60001092A00180EA9FE090930301809302010C
:101B700080E190E0909305018093040198C08091EA
:101B8000A0019091A101019769F48AEC98E09093EB
:101B900003018093020182E090E09093050180931D
:101BA000040185C08091A0019091A101029769F480
:101BB00084EC99E0909303018093020184E090E02B
:101BC000909305018093040172C08091A0019091CF
:101BD000A101039769F48EEB9AE09093030180933F
:101BE000020186E090E090930501809304015FC0BC
:101BF0008091A0019091A101049769F488EB9BE08A
:101C0000909303018093020188E090E09093050196
:101C1000809304014CC08091A0019091A10105978F
:101C200069F482EB9CE090930301809302018AE0C7
:101C300090E0909305018093040139C08091A00148
:101C40009091A101069769F48CEA9DE090930301BD
:101C5000809302018CE090E0909305018093040151
:101C600026C08091A0019091A101079769F486EAAE
:101C70009EE090930301809302018EE090E09093A8
:101C800005018093040113C08091A0019091A101EE
:101C9000089769F480EA9FE0909303018093020122
:101CA00080E190E0909305018093040100C0000062
:101CB000DF91CF91FF91EF91BF91AF919F918F9164
:101CC0007F916F915F914F913F912F910F90009273
:101CD0005F000F901F9018951F920F9200905F0069
:101CE0000F9211248F939F93CF93DF93CDB7DEB7DD
:101CF00080919C0190919D01019690939D0180930C
:101D00009C0180919C0190919D010A9721F4109271
:101D10009D0110929C010000DF91CF919F918F91C6
:101D20000F9000925F000F901F9018951F920F92D6
:101D300000905F000F921124EF92FF920F931F9378
:101D40002F933F934F935F936F937F938F939F93C3
:101D5000AF93BF93EF93FF93CF93DF93CDB7DEB7EE
:101D600080919601909197019C01990F440B550B1E
:101D70008091B2019091B301A091B401B091B501ED
:101D800079018A01E81AF90A0A0B1B0BD801C7016D
:101D90009C01AD01220F331F441F551F80E69AEEB0
:101DA000A0E0B0E0BC01CD010E945816DA01C901E3
:101DB0009093990180939801809196019091970159
:101DC000092E000CAA0BBB0B8093B2019093B301B8
:101DD000A093B401B093B5010000DF91CF91FF91C2
:101DE000EF91BF91AF919F918F917F916F915F9193
:101DF0004F913F912F911F910F91FF90EF900F9076
:101E000000925F000F901F9018951F920F92009004
:101E10005F000F9211242F933F934F935F936F9323
:101E20007F938F939F93AF93BF93EF93FF93CF9342
:101E3000DF93CDB7DEB7809196019091970101961F
:101E400090939701809396018091960190919701CC
:101E50002091F0033091F103B9010E944416892BBF
:101E600011F40E94F2080000DF91CF91FF91EF91F1
:101E7000BF91AF919F918F917F916F915F914F91A2
:101E80003F912F910F9000925F000F901F90189537
:101E90001F920F9200905F000F9211248F939F93D7
:101EA000EF93FF93CF93DF93CDB7DEB788E790E052
:101EB000FC01808191819093A5018093A401000091
:101EC000DF91CF91FF91EF919F918F910F900092B1
:101ED0005F000F901F9018951F920F9200905F0067
:101EE0000F9211242F933F934F935F936F937F93A0
:101EF0008F939F93AF93BF93EF93FF93CF93DF9312
:101F0000CDB7DEB70E94DB0A0000DF91CF91FF91D1
:101F1000EF91BF91AF919F918F917F916F915F9161
:101F20004F913F912F910F9000925F000F901F9063
:101F30001895CF93DF93CDB7DEB78AE290E020E823
:101F4000FC0120838BE290E02EE7FC01208384E2F9
:101F500090E026E0FC01208385E290E025E230E07D
:101F6000F901308120E42327FC01208387E290E0FF
:101F70002CEFFC01208384E490E022E0FC0120832C
:101F800085E490E023E0FC01208387E490E029EFE2
:101F9000FC0120838EE690E022E0FC01208386E8AD
:101FA00090E02FE33CE9FC013183208380E890E05E
:101FB00022EAFC01208381E890E02AE1FC012083F1
:101FC00088E890E020ED37E0FC01318320838AE847
:101FD00090E020ED37E0FC013183208388E690E03B
:101FE00025E0FC0120838BE690E020E4FC012083C7
:101FF0008DE690E020E3FC01208389E690E02AE072
:10200000FC0120838DE390E023E0FC0120838AE73C
:1020100090E02FEEFC0120838BE790E0FC01108222
:102020008EE790E02CE3FC01208387E690E00E949D
:10203000940A78940E94EF100E946F120E94D813A5
:102040008091960190919701092E000CAA0BBB0B71
:10205000BC01CD010E942D0A8091960190919701BB
:10206000092E000CAA0BBB0BBC01CD010E94540928
:10207000409100015091010120910401309105012E
:10208000429FC001439F900D529F900D11249C01CF
:10209000990F440B550B80E69AEEA0E0B0E0BC012E
:1020A000CD010E947A16DA01C9019093F103809361
:1020B000F003C6CF1F93CF93DF9300D0CDB7DEB729
:1020C00089836A8388E290E028E230E0F901208188
:1020D0002D7FFC0120838A81882351F088E290E0E3
:1020E00028E230E0F90120812860FC01208309C04A
:1020F00088E290E028E230E0F9012081277FFC01AE
:10210000208310E03CC08981882F90E0212F30E0AF
:1021100047E050E0BA01621B730B9B0102C095952A
:1021200087952A95E2F781709927892B51F088E2EB
:1021300090E028E230E0F90120812061FC01208359
:1021400009C088E290E028E230E0F90120812F7E8A
:10215000FC01208388E290E028E230E0F901208150
:102160002062FC01208388E290E028E230E0F9015F
:1021700020812F7DFC012083812F11E0180F183062
:1021800010F288E290E028E230E0F901208122603C
:10219000FC01208300000F900F90DF91CF911F91E1
:1021A0000895CF93DF931F92CDB7DEB7898360E0A8
:1021B00089810E945A1000000F90DF91CF910895FD
:1021C000CF93DF931F92CDB7DEB7898361E089811A
:1021D0000E945A1000000F90DF91CF9108950F9345
:1021E0001F93CF93DF93CDB7DEB76C970FB6F894FC
:1021F000DEBF0FBECDBF87E290E027E230E0F901FD
:1022000020812260FC01208387E290E027E230E019
:10221000F90120812460FC01208387E290E027E21D
:1022200030E0F90120812860FC01208387E290E002
:1022300027E230E0F90120812061FC01208387E260
:1022400090E027E230E0F90120812062FC01208348
:1022500088E290E028E230E0F90120812460FC016E
:10226000208388E290E028E230E0F90120812260BA
:10227000FC01208380E090E0A0E2B1E489839A83AE
:10228000AB83BC8320E030E04AE753E469817A8184
:102290008B819C810E94CB15DC01CB018B8B9C8BAD
:1022A000AD8BBE8B20E030E040E85FE36B897C893A
:1022B0008D899E890E94671488232CF481E090E028
:1022C000988F8F8B3FC020E03FEF4FE757E46B893B
:1022D0007C898D899E890E94C61518164CF520E0D0
:1022E00030E040E251E469817A818B819C810E94D7
:1022F000CB15DC01CB01BC01CD010E94E514DC0152
:10230000CB01988F8F8B0FC089E190E09A8F898FD6
:10231000898D9A8D0197F1F79A8F898F8F89988D82
:102320000197988F8F8B8F89988D892B69F714C0AF
:102330006B897C898D899E890E94E514DC01CB0123
:10234000988F8F8B8F89988D9C8F8B8F8B8D9C8D89
:102350000197F1F79C8F8B8F88E290E028E230E0C4
:10236000F90120812B7FFC01208380E090E0ACE824
:10237000B2E48D839E83AF83B88720E030E04AE7E4
:1023800053E46D817E818F8198850E94CB15DC019D
:10239000CB0189879A87AB87BC8720E030E040E893
:1023A0005FE369857A858B859C850E946714882305
:1023B0002CF481E090E09E878D873FC020E03FEFC6
:1023C0004FE757E469857A858B859C850E94C61501
:1023D00018164CF520E030E040E251E46D817E813A
:1023E0008F8198850E94CB15DC01CB01BC01CD010A
:1023F0000E94E514DC01CB019E878D870FC089E127
:1024000090E0988B8F878F8598890197F1F7988B4B
:102410008F878D859E8501979E878D878D859E856B
:10242000892B69F714C069857A858B859C850E9404
:10243000E514DC01CB019E878D878D859E859A8B67
:10244000898B89899A890197F1F79A8B898B88E220
:1024500090E028E230E0F90120812460FC01208333
:1024600088E290E028E230E0F90120812D7FFC0134
:10247000208381E20E94D11083E10E94D11086E086
:102480000E94D11082EC0E94D11080E20E94D110F3
:1024900089E00E94D11080E80E94D11080E40E945F
:1024A000D11000E010E005C080E00E94E0100F5F56
:1024B0001F4F083FF1E01F07B8F388E00E94D110DA
:1024C0008CE00E94D11000006C960FB6F894DEBF2D
:1024D0000FBECDBFDF91CF911F910F9108950F9344
:1024E0001F93CF93DF93CDB7DEB780E80E94D11062
:1024F00080E40E94D1101092AE031092AF0300E06E
:1025000010E007C0C8018A549E4FFC0110820F5F83
:102510001F4F083FF1E01F07A8F30000DF91CF91A4
:102520001F910F910895CF93DF9300D000D01F9299
:10253000CDB7DEB78B836C834D838C818695869572
:102540008695882F90E044E5489F9001499F300D83
:1025500011248B81882F90E0820F931F8A549E4F05
:102560009A8389838D818823C9F089819A81FC01AE
:102570008081482F8C81882F90E09C012770332721
:1025800081E090E002C0880F991F2A95E2F7842B22
:10259000282F89819A81FC01208319C089819A8121
:1025A000FC018081482F8C81882F90E09C0127704E
:1025B000332781E090E002C0880F991F2A95E2F747
:1025C00080958423282F89819A81FC012083000033
:1025D0000F900F900F900F900F90DF91CF91089573
:1025E0000F931F93CF93DF9300D000D01F92CDB7EE
:1025F000DEB78C836D8310E065C000E04EC08C8137
:10260000882F90E09C01205231099D81812F692FF4
:102610000E943816482F50E0C901880F991F880F73
:10262000991F820F931F840F951F88599F4F9A837C
:10263000898389819A81FC0184918B838B81282FE6
:1026400030E09D81802F692F0E943816882F90E0FE
:10265000A90102C0559547958A95E2F7CA01817094
:102660009927892B61F08091AF03982F900F80916B
:10267000AE03810F41E0692F0E9493120BC080913D
:10268000AF03982F900F8091AE03810F40E0692F28
:102690000E949312802F01E0080F402F50E08D819F
:1026A000282F30E0C901880F991F880F991F880FC4
:1026B000991F821B930B481759070CF4A0CF812F49
:1026C00011E0180F412F50E08D81282F30E0C90113
:1026D000880F991F880F991F820F931F481759075A
:1026E0000CF48BCF2091AE039D81892F880F880F2A
:1026F000890F820F8F5F8093AE038091AE03843584
:1027000070F01092AE032091AF039D81892F880F46
:10271000880F880F891B820F8F5F8093AF03809192
:10272000AF03803320F01092AE031092AF0300008D
:102730000F900F900F900F900F90DF91CF911F91FE
:102740000F910895CF93DF9300D01F92CDB7DEB7DE
:102750009A8389836B830CC089819A819C012F5F46
:102760003F4F3A832983FC0180816B810E94F012E4
:1027700089819A81FC018081882371F700000F9084
:102780000F900F90DF91CF910895CF93DF9300D0FA
:10279000CDB7DEB789836A8389818093AE038A814E
:1027A0008093AF0300000F900F90DF91CF910895B9
:1027B0000F931F93CF93DF93CDB7DEB780E80E94CE
:1027C000D11080E40E94D11000E010E009C0C801DF
:1027D0008A549E4FFC0180810E94E0100F5F1F4FC2
:1027E000083FF1E01F0798F30000DF91CF911F91A0
:1027F0000F9108955058BB27AA270E9412140C94D9
:102800008C150E947E1538F00E94851520F039F451
:102810009F3F19F426F40C947B150EF4E095E7FB2A
:102820000C947515E92F0E949D1558F3BA1762078D
:1028300073078407950720F079F4A6F50C94BF156B
:102840000EF4E0950B2EBA2FA02D0B01B9019001CB
:102850000C01CA01A0011124FF27591B99F0593F0F
:1028600050F4503E68F11A16F040A22F232F342F57
:102870004427585FF3CF469537952795A795F040A5
:102880005395C9F77EF41F16BA0B620B730B840BBA
:10289000BAF09150A1F0FF0FBB1F661F771F881F72
:1028A000C2F70EC0BA0F621F731F841F48F48795CA
:1028B00077956795B795F7959E3F08F0B0CF9395BC
:1028C000880F08F09927EE0F9795879508950E9435
:1028D000511508F481E008950E9480140C948C1521
:1028E0000E94851558F00E947E1540F029F45F3F44
:1028F00029F00C94751551110C94C0150C947B158E
:102900000E949D1568F39923B1F3552391F3951B0C
:10291000550BBB27AA2762177307840738F09F5F00
:102920005F4F220F331F441FAA1FA9F335D00E2E6D
:102930003AF0E0E832D091505040E695001CCAF7DA
:102940002BD0FE2F29D0660F771F881FBB1F26179D
:1029500037074807AB07B0E809F0BB0B802DBF0174
:10296000FF2793585F4F3AF09E3F510578F00C9443
:1029700075150C94C0155F3FE4F3983ED4F386952B
:1029800077956795B795F7959F5FC9F7880F911D64
:102990009695879597F90895E1E0660F771F881F50
:1029A000BB1F621773078407BA0720F0621B730B03
:1029B000840BBA0BEE1F88F7E09508950E94E5148A
:1029C0006894B1110C94C01508950E94A51588F063
:1029D0009F5798F0B92F9927B751B0F0E1F0660FE3
:1029E000771F881F991F1AF0BA95C9F714C0B13024
:1029F00091F00E94BF15B1E008950C94BF15672FA8
:102A0000782F8827B85F39F0B93FCCF38695779552
:102A10006795B395D9F73EF490958095709561953B
:102A20007F4F8F4F9F4F0895E89409C097FB3EF466
:102A300090958095709561957F4F8F4F9F4F99230B
:102A4000A9F0F92F96E9BB279395F6958795779589
:102A50006795B795F111F8CFFAF4BB0F11F460FF49
:102A60001BC06F5F7F4F8F4F9F4F16C0882311F0A1
:102A700096E911C0772321F09EE8872F762F05C0B5
:102A8000662371F096E8862F70E060E02AF09A9550
:102A9000660F771F881FDAF7880F9695879597F945
:102AA0000895990F0008550FAA0BE0E8FEEF1616DF
:102AB0001706E807F907C0F012161306E407F50732
:102AC00098F0621B730B840B950B39F40A2661F0A6
:102AD000232B242B252B21F408950A2609F4A14049
:102AE000A6958FEF811D811D089597F99F6780E856
:102AF00070E060E008959FEF80EC089500240A9450
:102B00001616170618060906089500240A941216C8
:102B10001306140605060895092E0394000C11F4FB
:102B2000882352F0BB0F40F4BF2B11F460FF04C0A8
:102B30006F5F7F4F8F4F9F4F089557FD9058440F01
:102B4000551F59F05F3F71F04795880F97FB991F0C
:102B500061F09F3F79F087950895121613061406C9
:102B6000551FF2CF4695F1DF08C016161706180656
:102B7000991FF1CF86957105610508940895E89431
:102B8000BB2766277727CB0197F908950E94511537
:102B900008F48FEF08950E94DE150C948C150E94A6
:102BA0007E1538F00E94851520F0952311F00C94C5
:102BB00075150C947B1511240C94C0150E949D155D
:102BC00070F3959FC1F3950F50E0551F629FF00180
:102BD000729FBB27F00DB11D639FAA27F00DB11D99
:102BE000AA1F649F6627B00DA11D661F829F222722
:102BF000B00DA11D621F739FB00DA11D621F839FA9
:102C0000A00D611D221F749F3327A00D611D231F7E
:102C1000849F600D211D822F762F6A2F11249F57CC
:102C200050409AF0F1F088234AF0EE0FFF1FBB1FCF
:102C3000661F771F881F91505040A9F79E3F51058E
:102C400080F00C9475150C94C0155F3FE4F3983E2A
:102C5000D4F3869577956795B795F795E7959F5F38
:102C6000C1F7FE2B880F911D9695879597F90895CA
:102C7000991B79E004C0991F961708F0961B881FCE
:102C80007A95C9F78095089597FB072E16F400945E
:102C900007D077FD09D00E94991607FC05D03EF4B5
:102CA000909581959F4F0895709561957F4F0895F8
:102CB000A1E21A2EAA1BBB1BFD010DC0AA1FBB1F40
:102CC000EE1FFF1FA217B307E407F50720F0A21BB2
:102CD000B30BE40BF50B661F771F881F991F1A941F
:102CE00069F760957095809590959B01AC01BD0149
:102CF000CF010895052E97FB1EF400940E949116B3
:102D000057FD07D00E94581607FC03D04EF40C94D0
:102D1000911650954095309521953F4F4F4F5F4FFD
:102D2000089590958095709561957F4F8F4F9F4F37
:102D30000895AA1BBB1B51E107C0AA1FBB1FA61702
:102D4000B70710F0A61BB70B881F991F5A95A9F754
:102D500080959095BC01CD010895AEE0B0E0E3EB25
:102D6000F6E10C946E190D891E8986E08C831A8316
:102D700009838FEF9FE79E838D83AE01475E5F4F90
:102D80006F89788DCE0101960E94CF16EF81F8856C
:102D9000E00FF11F10822E96E4E00C948A19ABE04C
:102DA000B0E0E5EDF6E10C9460196C017B018A015D
:102DB000FC0117821682838181FFCCC1CE0101966E
:102DC0003C01F6019381F70193FD859193FF819179
:102DD0007F01882309F4BAC1853239F493FD8591C6
:102DE00093FF81917F01853229F4B60190E00E9422
:102DF000C618E7CF912C212C312CFFE1F315D8F028
:102E00008B3279F038F4803279F08332A1F4232DBB
:102E100020611DC08D3261F0803369F4232D216063
:102E200016C0832D8260382EE32DE4603E2E2AC02A
:102E3000F32DF8601DC037FC2DC020ED280F2A307F
:102E400040F08E32B9F436FC81C1232D2064322E3D
:102E500019C036FE06C08AE0989E200D1124922EDD
:102E600011C0EAE02E9E200D1124222EF32DF062D7
:102E70003F2E08C08C3621F4832D8068382E02C086
:102E8000883641F4F70193FD859193FF81917F018D
:102E90008111B3CF982F9F7D9554933028F40C5F08
:102EA0001F4F9FE399830DC0833631F0833771F054
:102EB000833509F059C021C0F801808189830E5FF4
:102EC0001F4F88248394912C530113C02801F2E0F2
:102ED0004F0E511CF801A080B18036FE03C0692D51
:102EE00070E002C06FEF7FEFC5010E94BB184C017C
:102EF0008201F32DFF773F2E16C0280122E0420EFB
:102F0000511CF801A080B18036FE03C0692D70E02D
:102F100002C06FEF7FEFC5010E94B0184C01F32D86
:102F2000F0683F2E820133FC1BC0822D90E0881692
:102F30009906B0F4B60180E290E00E94C6182A9487
:102F4000F4CFF50137FC859137FE81915F01B60121
:102F500090E00E94C61821102A9421E0821A91085C
:102F60008114910471F7E8C0843611F0893641F577
:102F7000F80137FE07C060817181828193810C5F07
:102F80001F4F08C060817181072E000C880B990BC0
:102F90000E5F1F4FF32DFF763F2E97FF09C09095D0
:102FA0008095709561957F4F8F4F9F4FF0683F2EB2
:102FB0002AE030E0A3010E940219882E861845C03D
:102FC000853731F4232D2F7EB22E2AE030E025C044
:102FD000932D997FB92E8F36C1F018F4883579F08A
:102FE000B5C0803719F0883721F0B0C0E92FE06113
:102FF000BE2EB4FE0DC0FB2DF460BF2E09C034FE02
:103000000AC0292F2660B22E06C028E030E005C095
:1030100020E130E002C020E132E0F801B7FE07C055
:1030200060817181828193810C5F1F4F06C0608136
:10303000718180E090E00E5F1F4FA3010E94021992
:10304000882E8618FB2DFF773F2E36FE0DC0232DD0
:103050002E7FA22E891458F434FE0BC032FC09C016
:10306000832D8E7EA82E05C0B82CA32C03C0B82CAF
:1030700001C0B92CA4FE0FC0FE01E80DF11D808136
:10308000803321F49A2D997EA92E09C0A2FE06C094
:10309000B394B39404C08A2D867809F0B394A3FC4A
:1030A00011C0A0FE06C0B21488F4280C922C9B1804
:1030B0000EC0B21460F4B60180E290E00E94C6181F
:1030C000B394F7CFB21418F42B1802C0982C212C0B
:1030D000A4FE10C0B60180E390E00E94C618A2FED4
:1030E00017C0A1FC03C088E790E002C088E590E02B
:1030F000B6010CC08A2D867859F0A1FE02C08BE281
:1031000001C080E2A7FC8DE2B60190E00E94C618E3
:10311000891438F4B60180E390E00E94C6189A94AE
:10312000F7CF8A94F301E80DF11D8081B60190E09C
:103130000E94C6188110F5CF222009F442CEB601B4
:1031400080E290E00E94C6182A94F6CFF6018681AC
:10315000978102C08FEF9FEF2B96E2E10C947C19D0
:10316000FC010590615070400110D8F78095909552
:103170008E0F9F1F0895FC01615070400190011057
:10318000D8F7809590958E0F9F1F08950F931F93EA
:10319000CF93DF93FB01238121FD03C08FEF9FEFCE
:1031A0002CC022FF16C046815781248135814217E9
:1031B000530744F4A081B1819D012F5F3F4F3183BC
:1031C00020838C93268137812F5F3F4F378326835F
:1031D00014C08B01EC01FB010084F185E02D099501
:1031E000892BE1F6D80116968D919C91179701963F
:1031F00017969C938E931697CE01DF91CF911F91D6
:103200000F910895FA01AA27283051F1203181F158
:10321000E8946F936E7F6E5F7F4F8F4F9F4FAF4FDE
:10322000B1E03ED0B4E03CD0670F781F891F9A1FF1
:10323000A11D680F791F8A1F911DA11D6A0F711DA5
:10324000811D911DA11D20D009F468943F912AE0B1
:10325000269F11243019305D3193DEF6CF01089599
:10326000462F4770405D4193B3E00FD0C9F7F6CFCA
:10327000462F4F70405D4A3318F0495D31FD405292
:10328000419302D0A9F7EACFB4E0A6959795879528
:1032900077956795BA95C9F7009761057105089507
:1032A0009B01AC010A2E06945795479537952795B3
:1032B000BA95C9F7620F731F841F951FA01D08954B
:1032C0002F923F924F925F926F927F928F929F9236
:1032D000AF92BF92CF92DF92EF92FF920F931F9324
:1032E000CF93DF93CDB7DEB7CA1BDB0B0FB6F894D5
:1032F000DEBF0FBECDBF09942A88398848885F8415
:103300006E847D848C849B84AA84B984C884DF8085
:10331000EE80FD800C811B81AA81B981CE0FD11D69
:103320000FB6F894DEBF0FBECDBFED010895F8943F
:02333000FFCFCD
:103332000500A00F10000153696E61697320566980
:10334200746169730062706D002553704F3200BA68
:1033520043003B48784C3A006D6D48670025336462
:10336200002025326400506172616D6574726F7362
:10337200002A20726573702F6D696E00254F32002E
:10338200766F6C00726573702F6D696E002A20254E
:103392004F32002A20766F6C005469706F2073617F
:1033A2006E6775696E656F00412B00412D00422BDF
:1033B20000422D0041422B0041422D004F2B004F75
:0633C2002D002A005E0050
:00000001FF
